{
  "contractName": "TimeCapsule",
  "abi": [
    {
      "anonymous": false,
      "inputs": [
        {
          "indexed": true,
          "internalType": "address",
          "name": "sender",
          "type": "address"
        },
        {
          "indexed": false,
          "internalType": "uint256",
          "name": "unlockTime",
          "type": "uint256"
        }
      ],
      "name": "MessageCreated",
      "type": "event"
    },
    {
      "inputs": [
        {
          "internalType": "uint256",
          "name": "",
          "type": "uint256"
        }
      ],
      "name": "messages",
      "outputs": [
        {
          "internalType": "address",
          "name": "sender",
          "type": "address"
        },
        {
          "internalType": "string",
          "name": "content",
          "type": "string"
        },
        {
          "internalType": "uint256",
          "name": "unlockTime",
          "type": "uint256"
        }
      ],
      "stateMutability": "view",
      "type": "function",
      "constant": true
    },
    {
      "inputs": [
        {
          "internalType": "string",
          "name": "_encryptedContent",
          "type": "string"
        }
      ],
      "name": "createMessage",
      "outputs": [],
      "stateMutability": "nonpayable",
      "type": "function"
    },
    {
      "inputs": [
        {
          "internalType": "uint256",
          "name": "_index",
          "type": "uint256"
        }
      ],
      "name": "getMessage",
      "outputs": [
        {
          "internalType": "string",
          "name": "content",
          "type": "string"
        },
        {
          "internalType": "uint256",
          "name": "unlockTime",
          "type": "uint256"
        }
      ],
      "stateMutability": "view",
      "type": "function",
      "constant": true
    },
    {
      "inputs": [],
      "name": "getMessagesCount",
      "outputs": [
        {
          "internalType": "uint256",
          "name": "",
          "type": "uint256"
        }
      ],
      "stateMutability": "view",
      "type": "function",
      "constant": true
    }
  ],
  "bytecode": "0x608060405234801561000f575f80fd5b50610b418061001d5f395ff3fe608060405234801561000f575f80fd5b506004361061004a575f3560e01c80630d80fefd1461004e578063198a2de9146100805780633d0c46d01461009c57806386f79edb146100ba575b5f80fd5b61006860048036038101906100639190610454565b6100eb565b60405161007793929190610557565b60405180910390f35b61009a600480360381019061009591906106bf565b6101c4565b005b6100a46102e4565b6040516100b19190610706565b60405180910390f35b6100d460048036038101906100cf9190610454565b6102ef565b6040516100e292919061071f565b60405180910390f35b5f81815481106100f9575f80fd5b905f5260205f2090600302015f91509050805f015f9054906101000a900473ffffffffffffffffffffffffffffffffffffffff169080600101805461013d9061077a565b80601f01602080910402602001604051908101604052809291908181526020018280546101699061077a565b80156101b45780601f1061018b576101008083540402835291602001916101b4565b820191905f5260205f20905b81548152906001019060200180831161019757829003601f168201915b5050505050908060020154905083565b5f600a426101d291906107d7565b90505f60405180606001604052803373ffffffffffffffffffffffffffffffffffffffff16815260200184815260200183815250908060018154018082558091505060019003905f5260205f2090600302015f909190919091505f820151815f015f6101000a81548173ffffffffffffffffffffffffffffffffffffffff021916908373ffffffffffffffffffffffffffffffffffffffff160217905550602082015181600101908161028591906109a7565b506040820151816002015550503373ffffffffffffffffffffffffffffffffffffffff167f7beda5f329962f539630f1fee5dbb1ebae0508b3f46ed2e4b06739a462807966826040516102d89190610706565b60405180910390a25050565b5f8080549050905090565b60605f80805490508310610338576040517f08c379a000000000000000000000000000000000000000000000000000000000815260040161032f90610ac0565b60405180910390fd5b5f838154811061034b5761034a610ade565b5b905f5260205f2090600302016001015f848154811061036d5761036c610ade565b5b905f5260205f209060030201600201548180546103899061077a565b80601f01602080910402602001604051908101604052809291908181526020018280546103b59061077a565b80156104005780601f106103d757610100808354040283529160200191610400565b820191905f5260205f20905b8154815290600101906020018083116103e357829003601f168201915b5050505050915091509150915091565b5f604051905090565b5f80fd5b5f80fd5b5f819050919050565b61043381610421565b811461043d575f80fd5b50565b5f8135905061044e8161042a565b92915050565b5f6020828403121561046957610468610419565b5b5f61047684828501610440565b91505092915050565b5f73ffffffffffffffffffffffffffffffffffffffff82169050919050565b5f6104a88261047f565b9050919050565b6104b88161049e565b82525050565b5f81519050919050565b5f82825260208201905092915050565b5f5b838110156104f55780820151818401526020810190506104da565b5f8484015250505050565b5f601f19601f8301169050919050565b5f61051a826104be565b61052481856104c8565b93506105348185602086016104d8565b61053d81610500565b840191505092915050565b61055181610421565b82525050565b5f60608201905061056a5f8301866104af565b818103602083015261057c8185610510565b905061058b6040830184610548565b949350505050565b5f80fd5b5f80fd5b7f4e487b71000000000000000000000000000000000000000000000000000000005f52604160045260245ffd5b6105d182610500565b810181811067ffffffffffffffff821117156105f0576105ef61059b565b5b80604052505050565b5f610602610410565b905061060e82826105c8565b919050565b5f67ffffffffffffffff82111561062d5761062c61059b565b5b61063682610500565b9050602081019050919050565b828183375f83830152505050565b5f61066361065e84610613565b6105f9565b90508281526020810184848401111561067f5761067e610597565b5b61068a848285610643565b509392505050565b5f82601f8301126106a6576106a5610593565b5b81356106b6848260208601610651565b91505092915050565b5f602082840312156106d4576106d3610419565b5b5f82013567ffffffffffffffff8111156106f1576106f061041d565b5b6106fd84828501610692565b91505092915050565b5f6020820190506107195f830184610548565b92915050565b5f6040820190508181035f8301526107378185610510565b90506107466020830184610548565b9392505050565b7f4e487b71000000000000000000000000000000000000000000000000000000005f52602260045260245ffd5b5f600282049050600182168061079157607f821691505b6020821081036107a4576107a361074d565b5b50919050565b7f4e487b71000000000000000000000000000000000000000000000000000000005f52601160045260245ffd5b5f6107e182610421565b91506107ec83610421565b9250828201905080821115610804576108036107aa565b5b92915050565b5f819050815f5260205f209050919050565b5f6020601f8301049050919050565b5f82821b905092915050565b5f600883026108667fffffffffffffffffffffffffffffffffffffffffffffffffffffffffffffffff8261082b565b610870868361082b565b95508019841693508086168417925050509392505050565b5f819050919050565b5f6108ab6108a66108a184610421565b610888565b610421565b9050919050565b5f819050919050565b6108c483610891565b6108d86108d0826108b2565b848454610837565b825550505050565b5f90565b6108ec6108e0565b6108f78184846108bb565b505050565b5b8181101561091a5761090f5f826108e4565b6001810190506108fd565b5050565b601f82111561095f576109308161080a565b6109398461081c565b81016020851015610948578190505b61095c6109548561081c565b8301826108fc565b50505b505050565b5f82821c905092915050565b5f61097f5f1984600802610964565b1980831691505092915050565b5f6109978383610970565b9150826002028217905092915050565b6109b0826104be565b67ffffffffffffffff8111156109c9576109c861059b565b5b6109d3825461077a565b6109de82828561091e565b5f60209050601f831160018114610a0f575f84156109fd578287015190505b610a07858261098c565b865550610a6e565b601f198416610a1d8661080a565b5f5b82811015610a4457848901518255600182019150602085019450602081019050610a1f565b86831015610a615784890151610a5d601f891682610970565b8355505b6001600288020188555050505b505050505050565b7f496e646578206f7574206f6620626f756e6473000000000000000000000000005f82015250565b5f610aaa6013836104c8565b9150610ab582610a76565b602082019050919050565b5f6020820190508181035f830152610ad781610a9e565b9050919050565b7f4e487b71000000000000000000000000000000000000000000000000000000005f52603260045260245ffdfea26469706673582212201900e147099b1de3db001f12aadecb1bd4e7f1854e92344630ee4f1fb9668c9364736f6c63430008150033",
  "immutableReferences": {},
  "source": "// SPDX-License-Identifier: MIT\npragma solidity ^0.8.21;\n\ncontract TimeCapsule {\n    struct Message {\n        address sender;\n        string content;\n        uint256 unlockTime;\n    }\n\n    Message[] public messages;\n\n    event MessageCreated(address indexed sender, uint256 unlockTime);\n\n    function createMessage(string memory _encryptedContent) public {\n        uint256 unlockTime = block.timestamp + 10;\n        messages.push(Message(msg.sender, _encryptedContent, unlockTime));\n        emit MessageCreated(msg.sender, unlockTime);\n    }\n\n    function getMessage(uint256 _index) public view returns (string memory content, uint256 unlockTime) {\n        require(_index < messages.length, \"Index out of bounds\");\n        return (messages[_index].content, messages[_index].unlockTime);\n    }\n\n    function getMessagesCount() public view returns (uint256) {\n        return messages.length;\n    }\n}\n\n",
  "sourcePath": "/home/vant/time-capsule-dapp/smart-contracts/contracts/TimeCapsule.sol",
  "compiler": {
    "name": "solc",
    "version": "0.8.21+commit.d9974bed.Emscripten.clang"
  },
  "schemaVersion": "3.4.16",
  "updatedAt": "2025-04-13T20:52:48.381Z",
  "networkType": "ethereum",
  "devdoc": {
    "kind": "dev",
    "methods": {},
    "version": 1
  },
  "userdoc": {
    "kind": "user",
    "methods": {},
    "version": 1
  }
}