{
  "contractName": "TimeCapsule",
  "abi": [
    {
      "anonymous": false,
      "inputs": [
        {
          "indexed": true,
          "internalType": "address",
          "name": "sender",
          "type": "address"
        },
        {
          "indexed": false,
          "internalType": "uint256",
          "name": "unlockTime",
          "type": "uint256"
        }
      ],
      "name": "MessageCreated",
      "type": "event"
    },
    {
      "inputs": [
        {
          "internalType": "uint256",
          "name": "",
          "type": "uint256"
        }
      ],
      "name": "messages",
      "outputs": [
        {
          "internalType": "address",
          "name": "sender",
          "type": "address"
        },
        {
          "internalType": "string",
          "name": "content",
          "type": "string"
        },
        {
          "internalType": "uint256",
          "name": "unlockTime",
          "type": "uint256"
        }
      ],
      "stateMutability": "view",
      "type": "function",
      "constant": true
    },
    {
      "inputs": [
        {
          "internalType": "string",
          "name": "_content",
          "type": "string"
        },
        {
          "internalType": "uint256",
          "name": "_secondsFromNow",
          "type": "uint256"
        }
      ],
      "name": "createMessage",
      "outputs": [],
      "stateMutability": "nonpayable",
      "type": "function"
    },
    {
      "inputs": [
        {
          "internalType": "uint256",
          "name": "_index",
          "type": "uint256"
        }
      ],
      "name": "getMessage",
      "outputs": [
        {
          "internalType": "string",
          "name": "content",
          "type": "string"
        },
        {
          "internalType": "uint256",
          "name": "unlockTime",
          "type": "uint256"
        }
      ],
      "stateMutability": "view",
      "type": "function",
      "constant": true
    },
    {
      "inputs": [],
      "name": "getMessagesCount",
      "outputs": [
        {
          "internalType": "uint256",
          "name": "",
          "type": "uint256"
        }
      ],
      "stateMutability": "view",
      "type": "function",
      "constant": true
    }
  ],
  "bytecode": "0x608060405234801561000f575f80fd5b50610d2a8061001d5f395ff3fe608060405234801561000f575f80fd5b506004361061004a575f3560e01c80630d80fefd1461004e5780633d0c46d0146100805780635fc8ba9c1461009e57806386f79edb146100ba575b5f80fd5b61006860048036038101906100639190610534565b6100eb565b60405161007793929190610637565b60405180910390f35b6100886101c4565b6040516100959190610673565b60405180910390f35b6100b860048036038101906100b391906107b8565b6101cf565b005b6100d460048036038101906100cf9190610534565b610331565b6040516100e2929190610812565b60405180910390f35b5f81815481106100f9575f80fd5b905f5260205f2090600302015f91509050805f015f9054906101000a900473ffffffffffffffffffffffffffffffffffffffff169080600101805461013d9061086d565b80601f01602080910402602001604051908101604052809291908181526020018280546101699061086d565b80156101b45780601f1061018b576101008083540402835291602001916101b4565b820191905f5260205f20905b81548152906001019060200180831161019757829003601f168201915b5050505050908060020154905083565b5f8080549050905090565b5f8111610211576040517f08c379a0000000000000000000000000000000000000000000000000000000008152600401610208906108e7565b60405180910390fd5b5f814261021e9190610932565b90505f60405180606001604052803373ffffffffffffffffffffffffffffffffffffffff16815260200185815260200183815250908060018154018082558091505060019003905f5260205f2090600302015f909190919091505f820151815f015f6101000a81548173ffffffffffffffffffffffffffffffffffffffff021916908373ffffffffffffffffffffffffffffffffffffffff16021790555060208201518160010190816102d19190610b02565b506040820151816002015550503373ffffffffffffffffffffffffffffffffffffffff167f7beda5f329962f539630f1fee5dbb1ebae0508b3f46ed2e4b06739a462807966826040516103249190610673565b60405180910390a2505050565b60605f8080549050831061037a576040517f08c379a000000000000000000000000000000000000000000000000000000000815260040161037190610c1b565b60405180910390fd5b5f80848154811061038e5761038d610c39565b5b905f5260205f2090600302016040518060600160405290815f82015f9054906101000a900473ffffffffffffffffffffffffffffffffffffffff1673ffffffffffffffffffffffffffffffffffffffff1673ffffffffffffffffffffffffffffffffffffffff1681526020016001820180546104099061086d565b80601f01602080910402602001604051908101604052809291908181526020018280546104359061086d565b80156104805780601f1061045757610100808354040283529160200191610480565b820191905f5260205f20905b81548152906001019060200180831161046357829003601f168201915b50505050508152602001600282015481525050905080604001514210156104dc576040517f08c379a00000000000000000000000000000000000000000000000000000000081526004016104d390610cd6565b60405180910390fd5b806020015181604001519250925050915091565b5f604051905090565b5f80fd5b5f80fd5b5f819050919050565b61051381610501565b811461051d575f80fd5b50565b5f8135905061052e8161050a565b92915050565b5f60208284031215610549576105486104f9565b5b5f61055684828501610520565b91505092915050565b5f73ffffffffffffffffffffffffffffffffffffffff82169050919050565b5f6105888261055f565b9050919050565b6105988161057e565b82525050565b5f81519050919050565b5f82825260208201905092915050565b5f5b838110156105d55780820151818401526020810190506105ba565b5f8484015250505050565b5f601f19601f8301169050919050565b5f6105fa8261059e565b61060481856105a8565b93506106148185602086016105b8565b61061d816105e0565b840191505092915050565b61063181610501565b82525050565b5f60608201905061064a5f83018661058f565b818103602083015261065c81856105f0565b905061066b6040830184610628565b949350505050565b5f6020820190506106865f830184610628565b92915050565b5f80fd5b5f80fd5b7f4e487b71000000000000000000000000000000000000000000000000000000005f52604160045260245ffd5b6106ca826105e0565b810181811067ffffffffffffffff821117156106e9576106e8610694565b5b80604052505050565b5f6106fb6104f0565b905061070782826106c1565b919050565b5f67ffffffffffffffff82111561072657610725610694565b5b61072f826105e0565b9050602081019050919050565b828183375f83830152505050565b5f61075c6107578461070c565b6106f2565b90508281526020810184848401111561077857610777610690565b5b61078384828561073c565b509392505050565b5f82601f83011261079f5761079e61068c565b5b81356107af84826020860161074a565b91505092915050565b5f80604083850312156107ce576107cd6104f9565b5b5f83013567ffffffffffffffff8111156107eb576107ea6104fd565b5b6107f78582860161078b565b925050602061080885828601610520565b9150509250929050565b5f6040820190508181035f83015261082a81856105f0565b90506108396020830184610628565b9392505050565b7f4e487b71000000000000000000000000000000000000000000000000000000005f52602260045260245ffd5b5f600282049050600182168061088457607f821691505b60208210810361089757610896610840565b5b50919050565b7f456c207469656d706f20646562652073657220656e20656c2066757475726f005f82015250565b5f6108d1601f836105a8565b91506108dc8261089d565b602082019050919050565b5f6020820190508181035f8301526108fe816108c5565b9050919050565b7f4e487b71000000000000000000000000000000000000000000000000000000005f52601160045260245ffd5b5f61093c82610501565b915061094783610501565b925082820190508082111561095f5761095e610905565b5b92915050565b5f819050815f5260205f209050919050565b5f6020601f8301049050919050565b5f82821b905092915050565b5f600883026109c17fffffffffffffffffffffffffffffffffffffffffffffffffffffffffffffffff82610986565b6109cb8683610986565b95508019841693508086168417925050509392505050565b5f819050919050565b5f610a06610a016109fc84610501565b6109e3565b610501565b9050919050565b5f819050919050565b610a1f836109ec565b610a33610a2b82610a0d565b848454610992565b825550505050565b5f90565b610a47610a3b565b610a52818484610a16565b505050565b5b81811015610a7557610a6a5f82610a3f565b600181019050610a58565b5050565b601f821115610aba57610a8b81610965565b610a9484610977565b81016020851015610aa3578190505b610ab7610aaf85610977565b830182610a57565b50505b505050565b5f82821c905092915050565b5f610ada5f1984600802610abf565b1980831691505092915050565b5f610af28383610acb565b9150826002028217905092915050565b610b0b8261059e565b67ffffffffffffffff811115610b2457610b23610694565b5b610b2e825461086d565b610b39828285610a79565b5f60209050601f831160018114610b6a575f8415610b58578287015190505b610b628582610ae7565b865550610bc9565b601f198416610b7886610965565b5f5b82811015610b9f57848901518255600182019150602085019450602081019050610b7a565b86831015610bbc5784890151610bb8601f891682610acb565b8355505b6001600288020188555050505b505050505050565b7f4d656e73616a65206e6f206578697374650000000000000000000000000000005f82015250565b5f610c056011836105a8565b9150610c1082610bd1565b602082019050919050565b5f6020820190508181035f830152610c3281610bf9565b9050919050565b7f4e487b71000000000000000000000000000000000000000000000000000000005f52603260045260245ffd5b7f546f6461766961206e6f20707565646573207665722065737465206d656e73615f8201527f6a65000000000000000000000000000000000000000000000000000000000000602082015250565b5f610cc06022836105a8565b9150610ccb82610c66565b604082019050919050565b5f6020820190508181035f830152610ced81610cb4565b905091905056fea2646970667358221220019ff71038b86b588b1afa268359d4d0a40d4264e6761e60950ded1d8551d82f64736f6c63430008150033",
  "immutableReferences": {},
  "source": "// SPDX-License-Identifier: MIT\npragma solidity ^0.8.0;\n\ncontract TimeCapsule {\n    struct Message {\n        address sender;\n        string content;\n        uint unlockTime;\n    }\n\n    Message[] public messages;\n\n    event MessageCreated(address indexed sender, uint unlockTime);\n\n    function createMessage(string memory _content, uint _secondsFromNow) public {\n        require(_secondsFromNow > 0, \"El tiempo debe ser en el futuro\");\n        uint unlockTime = block.timestamp + _secondsFromNow;\n        messages.push(Message(msg.sender, _content, unlockTime));\n        emit MessageCreated(msg.sender, unlockTime);\n    }\n\n    function getMessage(uint _index) public view returns (string memory content, uint unlockTime) {\n        require(_index < messages.length, \"Mensaje no existe\");\n        Message memory m = messages[_index];\n        require(block.timestamp >= m.unlockTime, \"Todavia no puedes ver este mensaje\");\n        return (m.content, m.unlockTime);\n    }\n\n    function getMessagesCount() public view returns (uint) {\n        return messages.length;\n    }\n}\n",
  "sourcePath": "/home/vant/time-capsule-dapp/smart-contracts/contracts/TimeCapsule.sol",
  "compiler": {
    "name": "solc",
    "version": "0.8.21+commit.d9974bed.Emscripten.clang"
  },
  "schemaVersion": "3.4.16",
  "updatedAt": "2025-04-12T19:30:49.994Z",
  "networkType": "ethereum",
  "devdoc": {
    "kind": "dev",
    "methods": {},
    "version": 1
  },
  "userdoc": {
    "kind": "user",
    "methods": {},
    "version": 1
  }
}